{
  "_format": "hh-sol-artifact-1",
  "contractName": "PrivateVoting",
  "sourceName": "contracts/PrivateVoting.sol",
  "abi": [
    {
      "inputs": [
        {
          "internalType": "address",
          "name": "gateway_",
          "type": "address"
        },
        {
          "internalType": "address",
          "name": "gasReceiver_",
          "type": "address"
        },
        {
          "internalType": "string",
          "name": "chainName_",
          "type": "string"
        }
      ],
      "stateMutability": "nonpayable",
      "type": "constructor"
    },
    {
      "inputs": [],
      "name": "InvalidAddress",
      "type": "error"
    },
    {
      "inputs": [],
      "name": "NotApprovedByGateway",
      "type": "error"
    },
    {
      "anonymous": false,
      "inputs": [
        {
          "indexed": true,
          "internalType": "uint256",
          "name": "proposalId",
          "type": "uint256"
        },
        {
          "indexed": false,
          "internalType": "string",
          "name": "name",
          "type": "string"
        },
        {
          "indexed": false,
          "internalType": "string",
          "name": "description",
          "type": "string"
        }
      ],
      "name": "ProposalCreated",
      "type": "event"
    },
    {
      "anonymous": false,
      "inputs": [
        {
          "indexed": true,
          "internalType": "uint256",
          "name": "proposalId",
          "type": "uint256"
        },
        {
          "indexed": true,
          "internalType": "address",
          "name": "voter",
          "type": "address"
        },
        {
          "indexed": false,
          "internalType": "string",
          "name": "encryptedVote",
          "type": "string"
        }
      ],
      "name": "Voted",
      "type": "event"
    },
    {
      "anonymous": false,
      "inputs": [
        {
          "indexed": true,
          "internalType": "uint256",
          "name": "proposalId",
          "type": "uint256"
        }
      ],
      "name": "VotingClosed",
      "type": "event"
    },
    {
      "inputs": [],
      "name": "chainName",
      "outputs": [
        {
          "internalType": "string",
          "name": "",
          "type": "string"
        }
      ],
      "stateMutability": "view",
      "type": "function"
    },
    {
      "inputs": [
        {
          "internalType": "string",
          "name": "name",
          "type": "string"
        },
        {
          "internalType": "string",
          "name": "description",
          "type": "string"
        },
        {
          "internalType": "uint256",
          "name": "quorum",
          "type": "uint256"
        }
      ],
      "name": "createProposal",
      "outputs": [
        {
          "internalType": "uint256",
          "name": "proposalId",
          "type": "uint256"
        }
      ],
      "stateMutability": "nonpayable",
      "type": "function"
    },
    {
      "inputs": [
        {
          "internalType": "bytes32",
          "name": "commandId",
          "type": "bytes32"
        },
        {
          "internalType": "string",
          "name": "sourceChain",
          "type": "string"
        },
        {
          "internalType": "string",
          "name": "sourceAddress",
          "type": "string"
        },
        {
          "internalType": "bytes",
          "name": "payload",
          "type": "bytes"
        }
      ],
      "name": "execute",
      "outputs": [],
      "stateMutability": "nonpayable",
      "type": "function"
    },
    {
      "inputs": [
        {
          "internalType": "bytes32",
          "name": "commandId",
          "type": "bytes32"
        },
        {
          "internalType": "string",
          "name": "sourceChain",
          "type": "string"
        },
        {
          "internalType": "string",
          "name": "sourceAddress",
          "type": "string"
        },
        {
          "internalType": "bytes",
          "name": "payload",
          "type": "bytes"
        },
        {
          "internalType": "string",
          "name": "tokenSymbol",
          "type": "string"
        },
        {
          "internalType": "uint256",
          "name": "amount",
          "type": "uint256"
        }
      ],
      "name": "executeWithToken",
      "outputs": [],
      "stateMutability": "nonpayable",
      "type": "function"
    },
    {
      "inputs": [],
      "name": "gasService",
      "outputs": [
        {
          "internalType": "contract IAxelarGasService",
          "name": "",
          "type": "address"
        }
      ],
      "stateMutability": "view",
      "type": "function"
    },
    {
      "inputs": [],
      "name": "gateway",
      "outputs": [
        {
          "internalType": "contract IAxelarGateway",
          "name": "",
          "type": "address"
        }
      ],
      "stateMutability": "view",
      "type": "function"
    },
    {
      "inputs": [],
      "name": "nextProposalId",
      "outputs": [
        {
          "internalType": "uint256",
          "name": "",
          "type": "uint256"
        }
      ],
      "stateMutability": "view",
      "type": "function"
    },
    {
      "inputs": [
        {
          "internalType": "uint256",
          "name": "",
          "type": "uint256"
        }
      ],
      "name": "proposals",
      "outputs": [
        {
          "internalType": "uint256",
          "name": "id",
          "type": "uint256"
        },
        {
          "internalType": "string",
          "name": "name",
          "type": "string"
        },
        {
          "internalType": "string",
          "name": "description",
          "type": "string"
        },
        {
          "internalType": "uint256",
          "name": "quorum",
          "type": "uint256"
        },
        {
          "internalType": "uint256",
          "name": "voteCount",
          "type": "uint256"
        }
      ],
      "stateMutability": "view",
      "type": "function"
    },
    {
      "inputs": [
        {
          "internalType": "string",
          "name": "destinationChain",
          "type": "string"
        },
        {
          "internalType": "string",
          "name": "destinationAddress",
          "type": "string"
        },
        {
          "internalType": "string",
          "name": "encryptedVote",
          "type": "string"
        }
      ],
      "name": "send",
      "outputs": [],
      "stateMutability": "payable",
      "type": "function"
    },
    {
      "inputs": [
        {
          "internalType": "uint256",
          "name": "value",
          "type": "uint256"
        }
      ],
      "name": "uintToString",
      "outputs": [
        {
          "internalType": "string",
          "name": "",
          "type": "string"
        }
      ],
      "stateMutability": "pure",
      "type": "function"
    },
    {
      "inputs": [
        {
          "internalType": "uint256",
          "name": "proposalId",
          "type": "uint256"
        },
        {
          "internalType": "string",
          "name": "encryptedVote",
          "type": "string"
        },
        {
          "internalType": "string",
          "name": "destinationChain",
          "type": "string"
        },
        {
          "internalType": "string",
          "name": "destinationAddress",
          "type": "string"
        }
      ],
      "name": "vote",
      "outputs": [],
      "stateMutability": "payable",
      "type": "function"
    }
  ],
  "bytecode": "0x60c06040523480156200001157600080fd5b5060405162001a8138038062001a8183398101604081905262000034916200016e565b826001600160a01b0381166200005d5760405163e6c4247b60e01b815260040160405180910390fd5b6001600160a01b03908116608052821660a05280516200008590600090602084019062000095565b5050600160025550620002af9050565b828054620000a39062000272565b90600052602060002090601f016020900481019282620000c7576000855562000112565b82601f10620000e257805160ff191683800117855562000112565b8280016001018555821562000112579182015b8281111562000112578251825591602001919060010190620000f5565b506200012092915062000124565b5090565b5b8082111562000120576000815560010162000125565b80516001600160a01b03811681146200015357600080fd5b919050565b634e487b7160e01b600052604160045260246000fd5b6000806000606084860312156200018457600080fd5b6200018f846200013b565b92506020620001a08186016200013b565b60408601519093506001600160401b0380821115620001be57600080fd5b818701915087601f830112620001d357600080fd5b815181811115620001e857620001e862000158565b604051601f8201601f19908116603f0116810190838211818310171562000213576200021362000158565b816040528281528a868487010111156200022c57600080fd5b600093505b8284101562000250578484018601518185018701529285019262000231565b82841115620002625760008684830101525b8096505050505050509250925092565b600181811c908216806200028757607f821691505b60208210811415620002a957634e487b7160e01b600052602260045260246000fd5b50919050565b60805160a051611790620002f1600039600081816101f401526106c601526000818161011b01528181610459015281816105d9015261076301526117906000f3fe60806040526004361061009c5760003560e01c80632ab09d14116100645780632ab09d141461019957806349160658146101af5780635615264d146101cf5780636a22d8cc146101e2578063dd4159c014610216578063e93956791461022957600080fd5b8063013cf08b146100a15780630ce0ebf4146100db578063116191b6146101095780631a98b2e0146101555780631c93b03a14610177575b600080fd5b3480156100ad57600080fd5b506100c16100bc366004610eb6565b610249565b6040516100d2959493929190610f2b565b60405180910390f35b3480156100e757600080fd5b506100fb6100f636600461100e565b610387565b6040519081526020016100d2565b34801561011557600080fd5b5061013d7f000000000000000000000000000000000000000000000000000000000000000081565b6040516001600160a01b0390911681526020016100d2565b34801561016157600080fd5b506101756101703660046110c4565b610428565b005b34801561018357600080fd5b5061018c61051a565b6040516100d2919061119e565b3480156101a557600080fd5b506100fb60025481565b3480156101bb57600080fd5b506101756101ca3660046111b8565b6105a8565b6101756101dd36600461125c565b610691565b3480156101ee57600080fd5b5061013d7f000000000000000000000000000000000000000000000000000000000000000081565b6101756102243660046111b8565b6107df565b34801561023557600080fd5b5061018c610244366004610eb6565b610948565b60016020819052600091825260409091208054918101805461026a906112f6565b80601f0160208091040260200160405190810160405280929190818152602001828054610296906112f6565b80156102e35780601f106102b8576101008083540402835291602001916102e3565b820191906000526020600020905b8154815290600101906020018083116102c657829003601f168201915b5050505050908060020180546102f8906112f6565b80601f0160208091040260200160405190810160405280929190818152602001828054610324906112f6565b80156103715780601f1061034657610100808354040283529160200191610371565b820191906000526020600020905b81548152906001019060200180831161035457829003601f168201915b5050505050908060040154908060050154905085565b600280546000918261039883611347565b9091555060008181526001602081815260409092208381558751939450926103c69291840191880190610e1d565b5083516103dc9060028301906020870190610e1d565b50828160040181905550817fab417751734d6a1f646db70d698328fa08bc6c3f8d4b8ef2a69adb1eb051496b8686604051610418929190611362565b60405180910390a2509392505050565b6000858560405161043a929190611390565b604051908190038120631876eed960e01b825291506001600160a01b037f00000000000000000000000000000000000000000000000000000000000000001690631876eed99061049e908e908e908e908e908e9089908d908d908d906004016113c9565b602060405180830381600087803b1580156104b857600080fd5b505af11580156104cc573d6000803e3d6000fd5b505050506040513d601f19601f820116820180604052508101906104f09190611428565b61050d57604051631403112d60e21b815260040160405180910390fd5b5050505050505050505050565b60008054610527906112f6565b80601f0160208091040260200160405190810160405280929190818152602001828054610553906112f6565b80156105a05780601f10610575576101008083540402835291602001916105a0565b820191906000526020600020905b81548152906001019060200180831161058357829003601f168201915b505050505081565b600082826040516105ba929190611390565b604051908190038120635f6970c360e01b825291506001600160a01b037f00000000000000000000000000000000000000000000000000000000000000001690635f6970c390610618908b908b908b908b908b90899060040161144a565b602060405180830381600087803b15801561063257600080fd5b505af1158015610646573d6000803e3d6000fd5b505050506040513d601f19601f8201168201806040525081019061066a9190611428565b61068757604051631403112d60e21b815260040160405180910390fd5b5050505050505050565b600082826040516020016106a692919061148b565b604051602081830303815290604052905060006106c282610973565b90507f00000000000000000000000000000000000000000000000000000000000000006001600160a01b0316630c93e3bb34308b8b8b8b88336040518963ffffffff1660e01b815260040161071d97969594939291906114a7565b6000604051808303818588803b15801561073657600080fd5b505af115801561074a573d6000803e3d6000fd5b5050604051631c92115f60e01b81526001600160a01b037f0000000000000000000000000000000000000000000000000000000000000000169350631c92115f92506107a391508b908b908b908b908890600401611509565b600060405180830381600087803b1580156107bd57600080fd5b505af11580156107d1573d6000803e3d6000fd5b505050505050505050505050565b6000878152600160209081526040808320338452600381019092529091205460ff16156108435760405162461bcd60e51b815260206004820152600d60248201526c105b1c9958591e481d9bdd1959609a1b60448201526064015b60405180910390fd5b806004015481600501541061088a5760405162461bcd60e51b815260206004820152600d60248201526c159bdd1a5b99c818db1bdcd959609a1b604482015260640161083a565b336001600160a01b0316887f909b43dcc56d91024768bbc5c8d56441234580b2fd6176844960cbc7218cc0b589896040516108c692919061148b565b60405180910390a33360009081526003820160205260408120805460ff19166001179055600582018054916108fa83611347565b9190505550806004015481600501541061093a5760405188907f8e9b46a70b3967bc9ea56ca61732c363a191fac88ae3ba011f4e030711c9011790600090a25b610687858585858b8b610691565b60608160405160200161095d91815260200190565b6040516020818303038152906040529050919050565b606060008061098130610bd2565b8460405160200161099493929190611550565b60408051808303601f19018152600380845260808401909252925060009190816020015b60608152602001906001900390816109b85790505090506040518060400160405280600c81526020016b39b7bab931b2afb1b430b4b760a11b81525081600081518110610a0757610a07611621565b60200260200101819052506040518060400160405280600e81526020016d736f757263655f6164647265737360901b81525081600181518110610a4c57610a4c611621565b6020026020010181905250604051806040016040528060078152602001661c185e5b1bd85960ca1b81525081600281518110610a8a57610a8a611621565b602090810291909101015260408051600380825260808201909252600091816020015b6060815260200190600190039081610aad57905050905060405180604001604052806006815260200165737472696e6760d01b81525081600081518110610af657610af6611621565b602002602001018190525060405180604001604052806006815260200165737472696e6760d01b81525081600181518110610b3357610b33611621565b602002602001018190525060405180604001604052806005815260200164627974657360d81b81525081600281518110610b6f57610b6f611621565b60200260200101819052506060828285604051602001610b919392919061168f565b60408051601f19818403018152908290529150610bb890600160e01b9083906020016116f2565b604051602081830303815290604052945050505050919050565b604051606082811b6bffffffffffffffffffffffff191660208301529060009060340160408051601f198184030181528282528051838301909252601083526f181899199a1a9b1b9c1cb0b131b232b360811b60208401528051909350909190600090610c40906002611723565b610c4b906002611742565b67ffffffffffffffff811115610c6357610c63610f6b565b6040519080825280601f01601f191660200182016040528015610c8d576020820181803683370190505b509050600360fc1b81600081518110610ca857610ca8611621565b60200101906001600160f81b031916908160001a905350600f60fb1b81600181518110610cd757610cd7611621565b60200101906001600160f81b031916908160001a90535060005b83811015610e1357826004868381518110610d0e57610d0e611621565b016020015182516001600160f81b031990911690911c60f81c908110610d3657610d36611621565b01602001516001600160f81b03191682610d51836002611723565b610d5c906002611742565b81518110610d6c57610d6c611621565b60200101906001600160f81b031916908160001a90535082858281518110610d9657610d96611621565b602091010151815160f89190911c600f16908110610db657610db6611621565b01602001516001600160f81b03191682610dd1836002611723565b610ddc906003611742565b81518110610dec57610dec611621565b60200101906001600160f81b031916908160001a905350610e0c81611347565b9050610cf1565b5095945050505050565b828054610e29906112f6565b90600052602060002090601f016020900481019282610e4b5760008555610e91565b82601f10610e6457805160ff1916838001178555610e91565b82800160010185558215610e91579182015b82811115610e91578251825591602001919060010190610e76565b50610e9d929150610ea1565b5090565b5b80821115610e9d5760008155600101610ea2565b600060208284031215610ec857600080fd5b5035919050565b60005b83811015610eea578181015183820152602001610ed2565b83811115610ef9576000848401525b50505050565b60008151808452610f17816020860160208601610ecf565b601f01601f19169290920160200192915050565b85815260a060208201526000610f4460a0830187610eff565b8281036040840152610f568187610eff565b60608401959095525050608001529392505050565b634e487b7160e01b600052604160045260246000fd5b600082601f830112610f9257600080fd5b813567ffffffffffffffff80821115610fad57610fad610f6b565b604051601f8301601f19908116603f01168101908282118183101715610fd557610fd5610f6b565b81604052838152866020858801011115610fee57600080fd5b836020870160208301376000602085830101528094505050505092915050565b60008060006060848603121561102357600080fd5b833567ffffffffffffffff8082111561103b57600080fd5b61104787838801610f81565b9450602086013591508082111561105d57600080fd5b5061106a86828701610f81565b925050604084013590509250925092565b60008083601f84011261108d57600080fd5b50813567ffffffffffffffff8111156110a557600080fd5b6020830191508360208285010111156110bd57600080fd5b9250929050565b60008060008060008060008060008060c08b8d0312156110e357600080fd5b8a35995060208b013567ffffffffffffffff8082111561110257600080fd5b61110e8e838f0161107b565b909b50995060408d013591508082111561112757600080fd5b6111338e838f0161107b565b909950975060608d013591508082111561114c57600080fd5b6111588e838f0161107b565b909750955060808d013591508082111561117157600080fd5b5061117e8d828e0161107b565b9150809450508092505060a08b013590509295989b9194979a5092959850565b6020815260006111b16020830184610eff565b9392505050565b60008060008060008060006080888a0312156111d357600080fd5b87359650602088013567ffffffffffffffff808211156111f257600080fd5b6111fe8b838c0161107b565b909850965060408a013591508082111561121757600080fd5b6112238b838c0161107b565b909650945060608a013591508082111561123c57600080fd5b506112498a828b0161107b565b989b979a50959850939692959293505050565b6000806000806000806060878903121561127557600080fd5b863567ffffffffffffffff8082111561128d57600080fd5b6112998a838b0161107b565b909850965060208901359150808211156112b257600080fd5b6112be8a838b0161107b565b909650945060408901359150808211156112d757600080fd5b506112e489828a0161107b565b979a9699509497509295939492505050565b600181811c9082168061130a57607f821691505b6020821081141561132b57634e487b7160e01b600052602260045260246000fd5b50919050565b634e487b7160e01b600052601160045260246000fd5b600060001982141561135b5761135b611331565b5060010190565b6040815260006113756040830185610eff565b82810360208401526113878185610eff565b95945050505050565b8183823760009101908152919050565b81835281816020850137506000828201602090810191909152601f909101601f19169091010190565b89815260c0602082015260006113e360c083018a8c6113a0565b82810360408401526113f681898b6113a0565b905086606084015282810360808401526114118186886113a0565b9150508260a08301529a9950505050505050505050565b60006020828403121561143a57600080fd5b815180151581146111b157600080fd5b8681526080602082015260006114646080830187896113a0565b82810360408401526114778186886113a0565b915050826060830152979650505050505050565b60208152600061149f6020830184866113a0565b949350505050565b600060018060a01b03808a16835260a060208401526114ca60a08401898b6113a0565b83810360408501526114dd81888a6113a0565b905083810360608501526114f18187610eff565b92505080841660808401525098975050505050505050565b60608152600061151d6060830187896113a0565b82810360208401526115308186886113a0565b905082810360408401526115448185610eff565b98975050505050505050565b60608152600080855481600182811c91508083168061157057607f831692505b602080841082141561159057634e487b7160e01b86526022600452602486fd5b60608801849052608088018280156115af57600181146115c0576115eb565b60ff198716825282820197506115eb565b60008d81526020902060005b878110156115e5578154848201529086019084016115cc565b83019850505b50508786038189015250505050506116038186610eff565b905082810360408401526116178185610eff565b9695505050505050565b634e487b7160e01b600052603260045260246000fd5b600082825180855260208086019550808260051b84010181860160005b8481101561168257601f19868403018952611670838351610eff565b98840198925090830190600101611654565b5090979650505050505050565b608081526013608082015272726563656976655f6d6573736167655f65766d60681b60a082015260c0602082015260006116cc60c0830186611637565b82810360408401526116de8186611637565b905082810360608401526116178185610eff565b6001600160e01b0319831681528151600090611715816004850160208701610ecf565b919091016004019392505050565b600081600019048311821515161561173d5761173d611331565b500290565b6000821982111561175557611755611331565b50019056fea2646970667358221220471fd8cc4d62cbe2ea6a62d0919c2cea6cadbc1ea32c19625eeb76cb9184eb6464736f6c63430008090033",
  "linkReferences": {},
  "deployedLinkReferences": {}
}