{
  "_format": "hh-sol-artifact-1",
  "contractName": "PrivateVoting",
  "sourceName": "contracts/PrivateVoting.sol",
  "abi": [
    {
      "inputs": [],
      "stateMutability": "nonpayable",
      "type": "constructor"
    },
    {
      "anonymous": false,
      "inputs": [
        {
          "indexed": true,
          "internalType": "uint256",
          "name": "proposalId",
          "type": "uint256"
        },
        {
          "indexed": false,
          "internalType": "string",
          "name": "description",
          "type": "string"
        }
      ],
      "name": "ProposalCreated",
      "type": "event"
    },
    {
      "anonymous": false,
      "inputs": [
        {
          "indexed": true,
          "internalType": "uint256",
          "name": "proposalId",
          "type": "uint256"
        },
        {
          "indexed": true,
          "internalType": "address",
          "name": "voter",
          "type": "address"
        },
        {
          "indexed": false,
          "internalType": "bytes",
          "name": "encryptedVote",
          "type": "bytes"
        }
      ],
      "name": "Voted",
      "type": "event"
    },
    {
      "anonymous": false,
      "inputs": [
        {
          "indexed": true,
          "internalType": "uint256",
          "name": "proposalId",
          "type": "uint256"
        }
      ],
      "name": "VotingClosed",
      "type": "event"
    },
    {
      "inputs": [
        {
          "internalType": "string",
          "name": "description",
          "type": "string"
        },
        {
          "internalType": "uint256",
          "name": "quorum",
          "type": "uint256"
        }
      ],
      "name": "createProposal",
      "outputs": [
        {
          "internalType": "uint256",
          "name": "proposalId",
          "type": "uint256"
        }
      ],
      "stateMutability": "nonpayable",
      "type": "function"
    },
    {
      "inputs": [
        {
          "internalType": "uint256",
          "name": "proposalId",
          "type": "uint256"
        }
      ],
      "name": "getProposal",
      "outputs": [
        {
          "internalType": "uint256",
          "name": "",
          "type": "uint256"
        },
        {
          "internalType": "string",
          "name": "",
          "type": "string"
        },
        {
          "internalType": "uint256",
          "name": "",
          "type": "uint256"
        },
        {
          "internalType": "uint256",
          "name": "",
          "type": "uint256"
        }
      ],
      "stateMutability": "view",
      "type": "function"
    },
    {
      "inputs": [
        {
          "internalType": "uint256",
          "name": "proposalId",
          "type": "uint256"
        }
      ],
      "name": "getVotes",
      "outputs": [
        {
          "internalType": "bytes[]",
          "name": "",
          "type": "bytes[]"
        }
      ],
      "stateMutability": "view",
      "type": "function"
    },
    {
      "inputs": [],
      "name": "nextProposalId",
      "outputs": [
        {
          "internalType": "uint256",
          "name": "",
          "type": "uint256"
        }
      ],
      "stateMutability": "view",
      "type": "function"
    },
    {
      "inputs": [
        {
          "internalType": "uint256",
          "name": "",
          "type": "uint256"
        }
      ],
      "name": "proposals",
      "outputs": [
        {
          "internalType": "uint256",
          "name": "id",
          "type": "uint256"
        },
        {
          "internalType": "string",
          "name": "description",
          "type": "string"
        },
        {
          "internalType": "uint256",
          "name": "quorum",
          "type": "uint256"
        },
        {
          "internalType": "uint256",
          "name": "voteCount",
          "type": "uint256"
        }
      ],
      "stateMutability": "view",
      "type": "function"
    },
    {
      "inputs": [
        {
          "internalType": "uint256",
          "name": "proposalId",
          "type": "uint256"
        },
        {
          "internalType": "bytes",
          "name": "encryptedVote",
          "type": "bytes"
        }
      ],
      "name": "vote",
      "outputs": [],
      "stateMutability": "nonpayable",
      "type": "function"
    }
  ],
  "bytecode": "0x608060405234801561001057600080fd5b506001805561099d806100246000396000f3fe608060405234801561001057600080fd5b50600436106100625760003560e01c8063013cf08b146100675780632ab09d141461009357806335facf78146100aa578063b88b82ba146100bd578063c7f758a8146100d2578063ff981099146100e5575b600080fd5b61007a61007536600461067f565b610105565b60405161008a94939291906106e5565b60405180910390f35b61009c60015481565b60405190815260200161008a565b61009c6100b8366004610727565b6101b6565b6100d06100cb3660046107dc565b61023e565b005b61007a6100e036600461067f565b6103c0565b6100f86100f336600461067f565b61048c565b60405161008a9190610858565b60006020819052908152604090208054600182018054919291610127906108ba565b80601f0160208091040260200160405190810160405280929190818152602001828054610153906108ba565b80156101a05780601f10610175576101008083540402835291602001916101a0565b820191906000526020600020905b81548152906001019060200180831161018357829003601f168201915b5050505050908060040154908060050154905084565b60018054600091826101c7836108f5565b909155506000818152602081815260409091208281558551929350916101f591600184019190870190610572565b50828160040181905550817f9c770c289ab5bf7e57cb1d23c8ceae993aea46eb64847072fd3d78ca60d3e4328560405161022f919061091e565b60405180910390a25092915050565b600083815260208181526040808320338452600281019092529091205460ff16156102a05760405162461bcd60e51b815260206004820152600d60248201526c105b1c9958591e481d9bdd1959609a1b60448201526064015b60405180910390fd5b80600401548160050154106102e75760405162461bcd60e51b815260206004820152600d60248201526c159bdd1a5b99c818db1bdcd959609a1b6044820152606401610297565b60038101805460018101825560009182526020909120610309910184846105f6565b503360009081526002820160205260408120805460ff1916600117905560058201805491610336836108f5565b9190505550336001600160a01b0316847f0aa382db139349751d2b57a2da636b9a7335a30ae382775d4c1c7bc92e9b6a328585604051610377929190610938565b60405180910390a380600401548160050154106103ba5760405184907f8e9b46a70b3967bc9ea56ca61732c363a191fac88ae3ba011f4e030711c9011790600090a25b50505050565b6000606060008060008060008781526020019081526020016000209050806000015481600101826004015483600501548280546103fc906108ba565b80601f0160208091040260200160405190810160405280929190818152602001828054610428906108ba565b80156104755780601f1061044a57610100808354040283529160200191610475565b820191906000526020600020905b81548152906001019060200180831161045857829003601f168201915b505050505092509450945094509450509193509193565b600081815260208181526040808320600301805482518185028101850190935280835260609492939192909184015b828210156105675783829060005260206000200180546104da906108ba565b80601f0160208091040260200160405190810160405280929190818152602001828054610506906108ba565b80156105535780601f1061052857610100808354040283529160200191610553565b820191906000526020600020905b81548152906001019060200180831161053657829003601f168201915b5050505050815260200190600101906104bb565b505050509050919050565b82805461057e906108ba565b90600052602060002090601f0160209004810192826105a057600085556105e6565b82601f106105b957805160ff19168380011785556105e6565b828001600101855582156105e6579182015b828111156105e65782518255916020019190600101906105cb565b506105f292915061066a565b5090565b828054610602906108ba565b90600052602060002090601f01602090048101928261062457600085556105e6565b82601f1061063d5782800160ff198235161785556105e6565b828001600101855582156105e6579182015b828111156105e657823582559160200191906001019061064f565b5b808211156105f2576000815560010161066b565b60006020828403121561069157600080fd5b5035919050565b6000815180845260005b818110156106be576020818501810151868301820152016106a2565b818111156106d0576000602083870101525b50601f01601f19169290920160200192915050565b8481526080602082015260006106fe6080830186610698565b6040830194909452506060015292915050565b634e487b7160e01b600052604160045260246000fd5b6000806040838503121561073a57600080fd5b823567ffffffffffffffff8082111561075257600080fd5b818501915085601f83011261076657600080fd5b81358181111561077857610778610711565b604051601f8201601f19908116603f011681019083821181831017156107a0576107a0610711565b816040528281528860208487010111156107b957600080fd5b826020860160208301376000602093820184015298969091013596505050505050565b6000806000604084860312156107f157600080fd5b83359250602084013567ffffffffffffffff8082111561081057600080fd5b818601915086601f83011261082457600080fd5b81358181111561083357600080fd5b87602082850101111561084557600080fd5b6020830194508093505050509250925092565b6000602080830181845280855180835260408601915060408160051b870101925083870160005b828110156108ad57603f1988860301845261089b858351610698565b9450928501929085019060010161087f565b5092979650505050505050565b600181811c908216806108ce57607f821691505b602082108114156108ef57634e487b7160e01b600052602260045260246000fd5b50919050565b600060001982141561091757634e487b7160e01b600052601160045260246000fd5b5060010190565b6020815260006109316020830184610698565b9392505050565b60208152816020820152818360408301376000818301604090810191909152601f909201601f1916010191905056fea264697066735822122050f07ad5a96350f7559f34c4774530b72cd2211ca84e3dad430f8fa00c39f25b64736f6c63430008090033",
  "linkReferences": {},
  "deployedLinkReferences": {}
}