{
  "_format": "hh-sol-artifact-1",
  "contractName": "PrivateVoting",
  "sourceName": "contracts/PrivateVoting.sol",
  "abi": [
    {
      "inputs": [
        {
          "internalType": "address",
          "name": "gateway_",
          "type": "address"
        },
        {
          "internalType": "address",
          "name": "gasReceiver_",
          "type": "address"
        },
        {
          "internalType": "string",
          "name": "chainName_",
          "type": "string"
        }
      ],
      "stateMutability": "nonpayable",
      "type": "constructor"
    },
    {
      "inputs": [],
      "name": "InvalidAddress",
      "type": "error"
    },
    {
      "inputs": [],
      "name": "NotApprovedByGateway",
      "type": "error"
    },
    {
      "inputs": [],
      "name": "chainName",
      "outputs": [
        {
          "internalType": "string",
          "name": "",
          "type": "string"
        }
      ],
      "stateMutability": "view",
      "type": "function"
    },
    {
      "inputs": [
        {
          "internalType": "string",
          "name": "name",
          "type": "string"
        },
        {
          "internalType": "string",
          "name": "description",
          "type": "string"
        }
      ],
      "name": "createProposal",
      "outputs": [
        {
          "internalType": "uint256",
          "name": "proposalId",
          "type": "uint256"
        }
      ],
      "stateMutability": "nonpayable",
      "type": "function"
    },
    {
      "inputs": [
        {
          "internalType": "bytes32",
          "name": "commandId",
          "type": "bytes32"
        },
        {
          "internalType": "string",
          "name": "sourceChain",
          "type": "string"
        },
        {
          "internalType": "string",
          "name": "sourceAddress",
          "type": "string"
        },
        {
          "internalType": "bytes",
          "name": "payload",
          "type": "bytes"
        }
      ],
      "name": "execute",
      "outputs": [],
      "stateMutability": "nonpayable",
      "type": "function"
    },
    {
      "inputs": [
        {
          "internalType": "bytes32",
          "name": "commandId",
          "type": "bytes32"
        },
        {
          "internalType": "string",
          "name": "sourceChain",
          "type": "string"
        },
        {
          "internalType": "string",
          "name": "sourceAddress",
          "type": "string"
        },
        {
          "internalType": "bytes",
          "name": "payload",
          "type": "bytes"
        },
        {
          "internalType": "string",
          "name": "tokenSymbol",
          "type": "string"
        },
        {
          "internalType": "uint256",
          "name": "amount",
          "type": "uint256"
        }
      ],
      "name": "executeWithToken",
      "outputs": [],
      "stateMutability": "nonpayable",
      "type": "function"
    },
    {
      "inputs": [],
      "name": "gasService",
      "outputs": [
        {
          "internalType": "contract IAxelarGasService",
          "name": "",
          "type": "address"
        }
      ],
      "stateMutability": "view",
      "type": "function"
    },
    {
      "inputs": [],
      "name": "gateway",
      "outputs": [
        {
          "internalType": "contract IAxelarGateway",
          "name": "",
          "type": "address"
        }
      ],
      "stateMutability": "view",
      "type": "function"
    },
    {
      "inputs": [],
      "name": "nextProposalId",
      "outputs": [
        {
          "internalType": "uint256",
          "name": "",
          "type": "uint256"
        }
      ],
      "stateMutability": "view",
      "type": "function"
    },
    {
      "inputs": [
        {
          "internalType": "uint256",
          "name": "",
          "type": "uint256"
        }
      ],
      "name": "proposals",
      "outputs": [
        {
          "internalType": "uint256",
          "name": "id",
          "type": "uint256"
        },
        {
          "internalType": "string",
          "name": "name",
          "type": "string"
        },
        {
          "internalType": "string",
          "name": "description",
          "type": "string"
        }
      ],
      "stateMutability": "view",
      "type": "function"
    },
    {
      "inputs": [
        {
          "internalType": "string",
          "name": "destinationChain",
          "type": "string"
        },
        {
          "internalType": "string",
          "name": "destinationAddress",
          "type": "string"
        },
        {
          "internalType": "string",
          "name": "encryptedVote",
          "type": "string"
        }
      ],
      "name": "send",
      "outputs": [],
      "stateMutability": "payable",
      "type": "function"
    },
    {
      "inputs": [
        {
          "internalType": "uint256",
          "name": "proposalId",
          "type": "uint256"
        },
        {
          "internalType": "string",
          "name": "encryptedVote",
          "type": "string"
        },
        {
          "internalType": "string",
          "name": "destinationChain",
          "type": "string"
        },
        {
          "internalType": "string",
          "name": "destinationAddress",
          "type": "string"
        }
      ],
      "name": "vote",
      "outputs": [],
      "stateMutability": "payable",
      "type": "function"
    }
  ],
  "bytecode": "0x60c06040523480156200001157600080fd5b50604051620018ad380380620018ad83398101604081905262000034916200016e565b826001600160a01b0381166200005d5760405163e6c4247b60e01b815260040160405180910390fd5b6001600160a01b03908116608052821660a05280516200008590600090602084019062000095565b5050600160025550620002af9050565b828054620000a39062000272565b90600052602060002090601f016020900481019282620000c7576000855562000112565b82601f10620000e257805160ff191683800117855562000112565b8280016001018555821562000112579182015b8281111562000112578251825591602001919060010190620000f5565b506200012092915062000124565b5090565b5b8082111562000120576000815560010162000125565b80516001600160a01b03811681146200015357600080fd5b919050565b634e487b7160e01b600052604160045260246000fd5b6000806000606084860312156200018457600080fd5b6200018f846200013b565b92506020620001a08186016200013b565b60408601519093506001600160401b0380821115620001be57600080fd5b818701915087601f830112620001d357600080fd5b815181811115620001e857620001e862000158565b604051601f8201601f19908116603f0116810190838211818310171562000213576200021362000158565b816040528281528a868487010111156200022c57600080fd5b600093505b8284101562000250578484018601518185018701529285019262000231565b82841115620002625760008684830101525b8096505050505050509250925092565b600181811c908216806200028757607f821691505b60208210811415620002a957634e487b7160e01b600052602260045260246000fd5b50919050565b60805160a0516115bd620002f0600039600081816101e701526105ec01526000818160e00152818161037f015281816104ff015261068901526115bd6000f3fe6080604052600436106100915760003560e01c8063491606581161005957806349160658146101825780635615264d146101a257806365e481e2146101b55780636a22d8cc146101d5578063dd4159c01461020957600080fd5b8063013cf08b14610096578063116191b6146100ce5780631a98b2e01461011a5780631c93b03a1461013c5780632ab09d141461015e575b600080fd5b3480156100a257600080fd5b506100b66100b1366004610d32565b61021c565b6040516100c593929190610da7565b60405180910390f35b3480156100da57600080fd5b506101027f000000000000000000000000000000000000000000000000000000000000000081565b6040516001600160a01b0390911681526020016100c5565b34801561012657600080fd5b5061013a610135366004610e25565b61034e565b005b34801561014857600080fd5b50610151610440565b6040516100c59190610eff565b34801561016a57600080fd5b5061017460025481565b6040519081526020016100c5565b34801561018e57600080fd5b5061013a61019d366004610f19565b6104ce565b61013a6101b0366004610fbd565b6105b7565b3480156101c157600080fd5b506101746101d03660046110fa565b610705565b3480156101e157600080fd5b506101027f000000000000000000000000000000000000000000000000000000000000000081565b61013a610217366004610f19565b610762565b60016020819052600091825260409091208054918101805461023d9061115e565b80601f01602080910402602001604051908101604052809291908181526020018280546102699061115e565b80156102b65780601f1061028b576101008083540402835291602001916102b6565b820191906000526020600020905b81548152906001019060200180831161029957829003601f168201915b5050505050908060020180546102cb9061115e565b80601f01602080910402602001604051908101604052809291908181526020018280546102f79061115e565b80156103445780601f1061031957610100808354040283529160200191610344565b820191906000526020600020905b81548152906001019060200180831161032757829003601f168201915b5050505050905083565b60008585604051610360929190611199565b604051908190038120631876eed960e01b825291506001600160a01b037f00000000000000000000000000000000000000000000000000000000000000001690631876eed9906103c4908e908e908e908e908e9089908d908d908d906004016111d2565b602060405180830381600087803b1580156103de57600080fd5b505af11580156103f2573d6000803e3d6000fd5b505050506040513d601f19601f820116820180604052508101906104169190611231565b61043357604051631403112d60e21b815260040160405180910390fd5b5050505050505050505050565b6000805461044d9061115e565b80601f01602080910402602001604051908101604052809291908181526020018280546104799061115e565b80156104c65780601f1061049b576101008083540402835291602001916104c6565b820191906000526020600020905b8154815290600101906020018083116104a957829003601f168201915b505050505081565b600082826040516104e0929190611199565b604051908190038120635f6970c360e01b825291506001600160a01b037f00000000000000000000000000000000000000000000000000000000000000001690635f6970c39061053e908b908b908b908b908b908990600401611253565b602060405180830381600087803b15801561055857600080fd5b505af115801561056c573d6000803e3d6000fd5b505050506040513d601f19601f820116820180604052508101906105909190611231565b6105ad57604051631403112d60e21b815260040160405180910390fd5b5050505050505050565b600082826040516020016105cc929190611294565b604051602081830303815290604052905060006105e8826107ef565b90507f00000000000000000000000000000000000000000000000000000000000000006001600160a01b0316630c93e3bb34308b8b8b8b88336040518963ffffffff1660e01b815260040161064397969594939291906112b0565b6000604051808303818588803b15801561065c57600080fd5b505af1158015610670573d6000803e3d6000fd5b5050604051631c92115f60e01b81526001600160a01b037f0000000000000000000000000000000000000000000000000000000000000000169350631c92115f92506106c991508b908b908b908b908890600401611312565b600060405180830381600087803b1580156106e357600080fd5b505af11580156106f7573d6000803e3d6000fd5b505050505050505050505050565b60028054600091826107168361136f565b9091555060008181526001602081815260409092208381558651939450926107449291840191870190610c99565b50825161075a9060028301906020860190610c99565b505092915050565b6000878152600160209081526040808320338452600381019092529091205460ff16156107c55760405162461bcd60e51b815260206004820152600d60248201526c105b1c9958591e481d9bdd1959609a1b604482015260640160405180910390fd5b3360009081526003820160205260409020805460ff191660011790556105ad858585858b8b6105b7565b60606000806107fd30610a4e565b846040516020016108109392919061138a565b60408051808303601f19018152600380845260808401909252925060009190816020015b60608152602001906001900390816108345790505090506040518060400160405280600c81526020016b39b7bab931b2afb1b430b4b760a11b8152508160008151811061088357610883611451565b60200260200101819052506040518060400160405280600e81526020016d736f757263655f6164647265737360901b815250816001815181106108c8576108c8611451565b6020026020010181905250604051806040016040528060078152602001661c185e5b1bd85960ca1b8152508160028151811061090657610906611451565b602090810291909101015260408051600380825260808201909252600091816020015b606081526020019060019003908161092957905050905060405180604001604052806006815260200165737472696e6760d01b8152508160008151811061097257610972611451565b602002602001018190525060405180604001604052806006815260200165737472696e6760d01b815250816001815181106109af576109af611451565b602002602001018190525060405180604001604052806005815260200164627974657360d81b815250816002815181106109eb576109eb611451565b60200260200101819052506060828285604051602001610a0d939291906114bc565b60408051601f19818403018152908290529150610a3490600160e01b90839060200161151f565b604051602081830303815290604052945050505050919050565b604051606082811b6bffffffffffffffffffffffff191660208301529060009060340160408051601f198184030181528282528051838301909252601083526f181899199a1a9b1b9c1cb0b131b232b360811b60208401528051909350909190600090610abc906002611550565b610ac790600261156f565b67ffffffffffffffff811115610adf57610adf611057565b6040519080825280601f01601f191660200182016040528015610b09576020820181803683370190505b509050600360fc1b81600081518110610b2457610b24611451565b60200101906001600160f81b031916908160001a905350600f60fb1b81600181518110610b5357610b53611451565b60200101906001600160f81b031916908160001a90535060005b83811015610c8f57826004868381518110610b8a57610b8a611451565b016020015182516001600160f81b031990911690911c60f81c908110610bb257610bb2611451565b01602001516001600160f81b03191682610bcd836002611550565b610bd890600261156f565b81518110610be857610be8611451565b60200101906001600160f81b031916908160001a90535082858281518110610c1257610c12611451565b602091010151815160f89190911c600f16908110610c3257610c32611451565b01602001516001600160f81b03191682610c4d836002611550565b610c5890600361156f565b81518110610c6857610c68611451565b60200101906001600160f81b031916908160001a905350610c888161136f565b9050610b6d565b5095945050505050565b828054610ca59061115e565b90600052602060002090601f016020900481019282610cc75760008555610d0d565b82601f10610ce057805160ff1916838001178555610d0d565b82800160010185558215610d0d579182015b82811115610d0d578251825591602001919060010190610cf2565b50610d19929150610d1d565b5090565b5b80821115610d195760008155600101610d1e565b600060208284031215610d4457600080fd5b5035919050565b60005b83811015610d66578181015183820152602001610d4e565b83811115610d75576000848401525b50505050565b60008151808452610d93816020860160208601610d4b565b601f01601f19169290920160200192915050565b838152606060208201526000610dc06060830185610d7b565b8281036040840152610dd28185610d7b565b9695505050505050565b60008083601f840112610dee57600080fd5b50813567ffffffffffffffff811115610e0657600080fd5b602083019150836020828501011115610e1e57600080fd5b9250929050565b60008060008060008060008060008060c08b8d031215610e4457600080fd5b8a35995060208b013567ffffffffffffffff80821115610e6357600080fd5b610e6f8e838f01610ddc565b909b50995060408d0135915080821115610e8857600080fd5b610e948e838f01610ddc565b909950975060608d0135915080821115610ead57600080fd5b610eb98e838f01610ddc565b909750955060808d0135915080821115610ed257600080fd5b50610edf8d828e01610ddc565b9150809450508092505060a08b013590509295989b9194979a5092959850565b602081526000610f126020830184610d7b565b9392505050565b60008060008060008060006080888a031215610f3457600080fd5b87359650602088013567ffffffffffffffff80821115610f5357600080fd5b610f5f8b838c01610ddc565b909850965060408a0135915080821115610f7857600080fd5b610f848b838c01610ddc565b909650945060608a0135915080821115610f9d57600080fd5b50610faa8a828b01610ddc565b989b979a50959850939692959293505050565b60008060008060008060608789031215610fd657600080fd5b863567ffffffffffffffff80821115610fee57600080fd5b610ffa8a838b01610ddc565b9098509650602089013591508082111561101357600080fd5b61101f8a838b01610ddc565b9096509450604089013591508082111561103857600080fd5b5061104589828a01610ddc565b979a9699509497509295939492505050565b634e487b7160e01b600052604160045260246000fd5b600082601f83011261107e57600080fd5b813567ffffffffffffffff8082111561109957611099611057565b604051601f8301601f19908116603f011681019082821181831017156110c1576110c1611057565b816040528381528660208588010111156110da57600080fd5b836020870160208301376000602085830101528094505050505092915050565b6000806040838503121561110d57600080fd5b823567ffffffffffffffff8082111561112557600080fd5b6111318683870161106d565b9350602085013591508082111561114757600080fd5b506111548582860161106d565b9150509250929050565b600181811c9082168061117257607f821691505b6020821081141561119357634e487b7160e01b600052602260045260246000fd5b50919050565b8183823760009101908152919050565b81835281816020850137506000828201602090810191909152601f909101601f19169091010190565b89815260c0602082015260006111ec60c083018a8c6111a9565b82810360408401526111ff81898b6111a9565b9050866060840152828103608084015261121a8186886111a9565b9150508260a08301529a9950505050505050505050565b60006020828403121561124357600080fd5b81518015158114610f1257600080fd5b86815260806020820152600061126d6080830187896111a9565b82810360408401526112808186886111a9565b915050826060830152979650505050505050565b6020815260006112a86020830184866111a9565b949350505050565b600060018060a01b03808a16835260a060208401526112d360a08401898b6111a9565b83810360408501526112e681888a6111a9565b905083810360608501526112fa8187610d7b565b92505080841660808401525098975050505050505050565b6060815260006113266060830187896111a9565b82810360208401526113398186886111a9565b9050828103604084015261134d8185610d7b565b98975050505050505050565b634e487b7160e01b600052601160045260246000fd5b600060001982141561138357611383611359565b5060010190565b60608152600080855481600182811c9150808316806113aa57607f831692505b60208084108214156113ca57634e487b7160e01b86526022600452602486fd5b60608801849052608088018280156113e957600181146113fa57611425565b60ff19871682528282019750611425565b60008d81526020902060005b8781101561141f57815484820152908601908401611406565b83019850505b505087860381890152505050505061143d8186610d7b565b90508281036040840152610dd28185610d7b565b634e487b7160e01b600052603260045260246000fd5b600081518084526020808501808196508360051b8101915082860160005b858110156114af57828403895261149d848351610d7b565b98850198935090840190600101611485565b5091979650505050505050565b608081526013608082015272726563656976655f6d6573736167655f65766d60681b60a082015260c0602082015260006114f960c0830186611467565b828103604084015261150b8186611467565b90508281036060840152610dd28185610d7b565b6001600160e01b0319831681528151600090611542816004850160208701610d4b565b919091016004019392505050565b600081600019048311821515161561156a5761156a611359565b500290565b6000821982111561158257611582611359565b50019056fea264697066735822122082dc04ea5b33d583638b7c9940dbe96ad9ea0004b9fa5b5e0a13803c251b915e64736f6c63430008090033",
  "linkReferences": {},
  "deployedLinkReferences": {}
}