{
  "_format": "hh-sol-artifact-1",
  "contractName": "PrivateVoting",
  "sourceName": "contracts/PrivateVoting.sol",
  "abi": [
    {
      "inputs": [],
      "stateMutability": "nonpayable",
      "type": "constructor"
    },
    {
      "anonymous": false,
      "inputs": [
        {
          "indexed": true,
          "internalType": "uint256",
          "name": "proposalId",
          "type": "uint256"
        },
        {
          "indexed": false,
          "internalType": "string",
          "name": "description",
          "type": "string"
        }
      ],
      "name": "ProposalCreated",
      "type": "event"
    },
    {
      "anonymous": false,
      "inputs": [
        {
          "indexed": true,
          "internalType": "uint256",
          "name": "proposalId",
          "type": "uint256"
        },
        {
          "indexed": true,
          "internalType": "address",
          "name": "voter",
          "type": "address"
        },
        {
          "indexed": false,
          "internalType": "bytes",
          "name": "encryptedVote",
          "type": "bytes"
        }
      ],
      "name": "Voted",
      "type": "event"
    },
    {
      "anonymous": false,
      "inputs": [
        {
          "indexed": true,
          "internalType": "uint256",
          "name": "proposalId",
          "type": "uint256"
        }
      ],
      "name": "VotingClosed",
      "type": "event"
    },
    {
      "inputs": [
        {
          "internalType": "string",
          "name": "description",
          "type": "string"
        },
        {
          "internalType": "uint256",
          "name": "quorum",
          "type": "uint256"
        }
      ],
      "name": "createProposal",
      "outputs": [
        {
          "internalType": "uint256",
          "name": "proposalId",
          "type": "uint256"
        }
      ],
      "stateMutability": "nonpayable",
      "type": "function"
    },
    {
      "inputs": [],
      "name": "getAllClosedProposalsWithVotes",
      "outputs": [
        {
          "components": [
            {
              "internalType": "uint256",
              "name": "id",
              "type": "uint256"
            },
            {
              "internalType": "string",
              "name": "description",
              "type": "string"
            },
            {
              "internalType": "uint256",
              "name": "quorum",
              "type": "uint256"
            },
            {
              "internalType": "uint256",
              "name": "voteCount",
              "type": "uint256"
            },
            {
              "internalType": "bytes[]",
              "name": "encryptedVotes",
              "type": "bytes[]"
            }
          ],
          "internalType": "struct PrivateVoting.ProposalInfoWithVotes[]",
          "name": "",
          "type": "tuple[]"
        }
      ],
      "stateMutability": "view",
      "type": "function"
    },
    {
      "inputs": [],
      "name": "getAllOpenProposals",
      "outputs": [
        {
          "components": [
            {
              "internalType": "uint256",
              "name": "id",
              "type": "uint256"
            },
            {
              "internalType": "string",
              "name": "description",
              "type": "string"
            },
            {
              "internalType": "uint256",
              "name": "quorum",
              "type": "uint256"
            },
            {
              "internalType": "uint256",
              "name": "voteCount",
              "type": "uint256"
            }
          ],
          "internalType": "struct PrivateVoting.ProposalInfo[]",
          "name": "",
          "type": "tuple[]"
        }
      ],
      "stateMutability": "view",
      "type": "function"
    },
    {
      "inputs": [
        {
          "internalType": "uint256",
          "name": "proposalId",
          "type": "uint256"
        }
      ],
      "name": "getProposal",
      "outputs": [
        {
          "internalType": "uint256",
          "name": "",
          "type": "uint256"
        },
        {
          "internalType": "string",
          "name": "",
          "type": "string"
        },
        {
          "internalType": "uint256",
          "name": "",
          "type": "uint256"
        },
        {
          "internalType": "uint256",
          "name": "",
          "type": "uint256"
        }
      ],
      "stateMutability": "view",
      "type": "function"
    },
    {
      "inputs": [
        {
          "internalType": "uint256",
          "name": "proposalId",
          "type": "uint256"
        }
      ],
      "name": "getVotes",
      "outputs": [
        {
          "internalType": "bytes[]",
          "name": "",
          "type": "bytes[]"
        }
      ],
      "stateMutability": "view",
      "type": "function"
    },
    {
      "inputs": [],
      "name": "nextProposalId",
      "outputs": [
        {
          "internalType": "uint256",
          "name": "",
          "type": "uint256"
        }
      ],
      "stateMutability": "view",
      "type": "function"
    },
    {
      "inputs": [
        {
          "internalType": "uint256",
          "name": "",
          "type": "uint256"
        }
      ],
      "name": "proposals",
      "outputs": [
        {
          "internalType": "uint256",
          "name": "id",
          "type": "uint256"
        },
        {
          "internalType": "string",
          "name": "description",
          "type": "string"
        },
        {
          "internalType": "uint256",
          "name": "quorum",
          "type": "uint256"
        },
        {
          "internalType": "uint256",
          "name": "voteCount",
          "type": "uint256"
        }
      ],
      "stateMutability": "view",
      "type": "function"
    },
    {
      "inputs": [
        {
          "internalType": "uint256",
          "name": "proposalId",
          "type": "uint256"
        },
        {
          "internalType": "bytes",
          "name": "encryptedVote",
          "type": "bytes"
        }
      ],
      "name": "vote",
      "outputs": [],
      "stateMutability": "nonpayable",
      "type": "function"
    }
  ],
  "bytecode": "0x608060405234801561001057600080fd5b50600180556110cc806100246000396000f3fe608060405234801561001057600080fd5b50600436106100885760003560e01c806351330c021161005b57806351330c02146100f8578063b88b82ba1461010d578063c7f758a814610122578063ff9810991461013557600080fd5b8063013cf08b1461008d5780632ab09d14146100b957806335facf78146100d05780633aedd661146100e3575b600080fd5b6100a061009b366004610c6e565b610155565b6040516100b09493929190610cd4565b60405180910390f35b6100c260015481565b6040519081526020016100b0565b6100c26100de366004610d16565b610206565b6100eb61028e565b6040516100b09190610dcb565b6101006104f2565b6040516100b09190610eab565b61012061011b366004610f44565b61082d565b005b6100a0610130366004610c6e565b6109af565b610148610143366004610c6e565b610a7b565b6040516100b09190610fc0565b6000602081905290815260409020805460018201805491929161017790610fda565b80601f01602080910402602001604051908101604052809291908181526020018280546101a390610fda565b80156101f05780601f106101c5576101008083540402835291602001916101f0565b820191906000526020600020905b8154815290600101906020018083116101d357829003601f168201915b5050505050908060040154908060050154905084565b600180546000918261021783611015565b9091555060008181526020818152604090912082815585519293509161024591600184019190870190610b61565b50828160040181905550817f9c770c289ab5bf7e57cb1d23c8ceae993aea46eb64847072fd3d78ca60d3e4328560405161027f919061103e565b60405180910390a25092915050565b6060600060015467ffffffffffffffff8111156102ad576102ad610d00565b6040519080825280602002602001820160405280156102d6578160200160208202803683370190505b509050600060015b600154811015610345576000818152602081905260409020600481015460058201541015610332578184848151811061031957610319611051565b60209081029190910101528261032e81611015565b9350505b508061033d81611015565b9150506102de565b5060008167ffffffffffffffff81111561036157610361610d00565b6040519080825280602002602001820160405280156103bd57816020015b6103aa6040518060800160405280600081526020016060815260200160008152602001600081525090565b81526020019060019003908161037f5790505b50905060005b828110156104ea5760008482815181106103df576103df611051565b602002602001015190506000806000838152602001908152602001600020905060405180608001604052808260000154815260200182600101805461042390610fda565b80601f016020809104026020016040519081016040528092919081815260200182805461044f90610fda565b801561049c5780601f106104715761010080835404028352916020019161049c565b820191906000526020600020905b81548152906001019060200180831161047f57829003601f168201915b505050505081526020018260040154815260200182600501548152508484815181106104ca576104ca611051565b6020026020010181905250505080806104e290611015565b9150506103c3565b509392505050565b6060600060015467ffffffffffffffff81111561051157610511610d00565b60405190808252806020026020018201604052801561053a578160200160208202803683370190505b509050600060015b6001548110156105a85760008181526020819052604090206004810154600582015410610595578184848151811061057c5761057c611051565b60209081029190910101528261059181611015565b9350505b50806105a081611015565b915050610542565b5060008167ffffffffffffffff8111156105c4576105c4610d00565b60405190808252806020026020018201604052801561062757816020015b6106146040518060a0016040528060008152602001606081526020016000815260200160008152602001606081525090565b8152602001906001900390816105e25790505b50905060005b828110156104ea57600084828151811061064957610649611051565b60200260200101519050600080600083815260200190815260200160002090506040518060a001604052808260000154815260200182600101805461068d90610fda565b80601f01602080910402602001604051908101604052809291908181526020018280546106b990610fda565b80156107065780601f106106db57610100808354040283529160200191610706565b820191906000526020600020905b8154815290600101906020018083116106e957829003601f168201915b50505050508152602001826004015481526020018260050154815260200182600301805480602002602001604051908101604052809291908181526020016000905b828210156107f457838290600052602060002001805461076790610fda565b80601f016020809104026020016040519081016040528092919081815260200182805461079390610fda565b80156107e05780601f106107b5576101008083540402835291602001916107e0565b820191906000526020600020905b8154815290600101906020018083116107c357829003601f168201915b505050505081526020019060010190610748565b5050505081525084848151811061080d5761080d611051565b60200260200101819052505050808061082590611015565b91505061062d565b600083815260208181526040808320338452600281019092529091205460ff161561088f5760405162461bcd60e51b815260206004820152600d60248201526c105b1c9958591e481d9bdd1959609a1b60448201526064015b60405180910390fd5b80600401548160050154106108d65760405162461bcd60e51b815260206004820152600d60248201526c159bdd1a5b99c818db1bdcd959609a1b6044820152606401610886565b600381018054600181018255600091825260209091206108f891018484610be5565b503360009081526002820160205260408120805460ff191660011790556005820180549161092583611015565b9190505550336001600160a01b0316847f0aa382db139349751d2b57a2da636b9a7335a30ae382775d4c1c7bc92e9b6a328585604051610966929190611067565b60405180910390a380600401548160050154106109a95760405184907f8e9b46a70b3967bc9ea56ca61732c363a191fac88ae3ba011f4e030711c9011790600090a25b50505050565b6000606060008060008060008781526020019081526020016000209050806000015481600101826004015483600501548280546109eb90610fda565b80601f0160208091040260200160405190810160405280929190818152602001828054610a1790610fda565b8015610a645780601f10610a3957610100808354040283529160200191610a64565b820191906000526020600020905b815481529060010190602001808311610a4757829003601f168201915b505050505092509450945094509450509193509193565b600081815260208181526040808320600301805482518185028101850190935280835260609492939192909184015b82821015610b56578382906000526020600020018054610ac990610fda565b80601f0160208091040260200160405190810160405280929190818152602001828054610af590610fda565b8015610b425780601f10610b1757610100808354040283529160200191610b42565b820191906000526020600020905b815481529060010190602001808311610b2557829003601f168201915b505050505081526020019060010190610aaa565b505050509050919050565b828054610b6d90610fda565b90600052602060002090601f016020900481019282610b8f5760008555610bd5565b82601f10610ba857805160ff1916838001178555610bd5565b82800160010185558215610bd5579182015b82811115610bd5578251825591602001919060010190610bba565b50610be1929150610c59565b5090565b828054610bf190610fda565b90600052602060002090601f016020900481019282610c135760008555610bd5565b82601f10610c2c5782800160ff19823516178555610bd5565b82800160010185558215610bd5579182015b82811115610bd5578235825591602001919060010190610c3e565b5b80821115610be15760008155600101610c5a565b600060208284031215610c8057600080fd5b5035919050565b6000815180845260005b81811015610cad57602081850181015186830182015201610c91565b81811115610cbf576000602083870101525b50601f01601f19169290920160200192915050565b848152608060208201526000610ced6080830186610c87565b6040830194909452506060015292915050565b634e487b7160e01b600052604160045260246000fd5b60008060408385031215610d2957600080fd5b823567ffffffffffffffff80821115610d4157600080fd5b818501915085601f830112610d5557600080fd5b813581811115610d6757610d67610d00565b604051601f8201601f19908116603f01168101908382118183101715610d8f57610d8f610d00565b81604052828152886020848701011115610da857600080fd5b826020860160208301376000602093820184015298969091013596505050505050565b60006020808301818452808551808352604092508286019150828160051b87010184880160005b83811015610e4857603f19898403018552815160808151855288820151818a870152610e2082870182610c87565b838a0151878b0152606093840151939096019290925250509386019390860190600101610df2565b509098975050505050505050565b600081518084526020808501808196508360051b8101915082860160005b85811015610e9e578284038952610e8c848351610c87565b98850198935090840190600101610e74565b5091979650505050505050565b60006020808301818452808551808352604092508286019150828160051b87010184880160005b83811015610e4857603f19898403018552815160a08151855288820151818a870152610f0082870182610c87565b9150508782015188860152606080830151818701525060808083015192508582038187015250610f308183610e56565b968901969450505090860190600101610ed2565b600080600060408486031215610f5957600080fd5b83359250602084013567ffffffffffffffff80821115610f7857600080fd5b818601915086601f830112610f8c57600080fd5b813581811115610f9b57600080fd5b876020828501011115610fad57600080fd5b6020830194508093505050509250925092565b602081526000610fd36020830184610e56565b9392505050565b600181811c90821680610fee57607f821691505b6020821081141561100f57634e487b7160e01b600052602260045260246000fd5b50919050565b600060001982141561103757634e487b7160e01b600052601160045260246000fd5b5060010190565b602081526000610fd36020830184610c87565b634e487b7160e01b600052603260045260246000fd5b60208152816020820152818360408301376000818301604090810191909152601f909201601f1916010191905056fea2646970667358221220c9193bb105571fbd370938114d130193d3f95f1a63d4ce055a188edf8eff5d1b64736f6c63430008090033",
  "linkReferences": {},
  "deployedLinkReferences": {}
}